:020000040800F2
:1000000000280020BD180008811800088318000887
:1000100085180008871800088918000800000000EB
:100020000000000000000000000000008B18000825
:100030008D180008000000008F18000891180008B3
:100040000519000805190008051900080519000818
:100050000519000805190008051900080519000808
:1000600005190008051900080519000805190008F8
:1000700099180008A91800080519000805190008B2
:1000800005190008051900080519000805190008D8
:1000900005190008051900080519000805190008C8
:1000A00005190008051900080519000805190008B8
:1000B00005190008051900080000000005190008CE
:1000C00005190008000000000000000005190008E4
:1000D00000000000051900080519000800000000D4
:1000E000051900080519000805190008000000009E
:1000F0000000000000000000000000000000000000
:0C01000000000000000000005FF808F1A3
:10010C000348044B834202D0034B03B1184770479A
:10011C003C0400203C040020000000000548064977
:10012C000B1AD90F01EBA301491002D0034B03B1F9
:10013C00184770473C0400203C04002000000000DD
:10014C0010B5064C237843B9FFF7DAFF044B13B113
:10015C000448AFF300800123237010BD3C04002041
:10016C00000000001C19000808B5044B1BB1044921
:10017C000448AFF30080BDE80840CFE70000000062
:10018C00400400201C190008002301461A4618469A
:10019C0000F08EB838B50A4C0A4D641BA4100AD076
:1001AC0004F18043013B05EB8305013C55F8043910
:1001BC009847002CF9D1BDE8384001F0AFBB00BF27
:1001CC00681900086419000870B50D4E0D4D761BAA
:1001DC00B61006D00024013455F8043B9847A642CB
:1001EC00F9D1094E094D01F093FB761BB61006D0E0
:1001FC000024013455F8043B9847A642F9D170BD50
:10020C005C1900085C190008641900085C190008E6
:10021C00F0B4860746D0541E002A3CD0CAB203461E
:10022C0002E014F1FF3436D303F8012B9D07F8D10B
:10023C00032C29D9CDB245EA05250F2C45EA0545F5
:10024C0033D9A4F11006360903F1200707EB061782
:10025C0003F1100242E9045542E902551032BA4248
:10026C00F8D1721C14F00C0F03EB021204F00F0601
:10027C0013D0331F23F003030433134442F8045BFD
:10028C009342FBD106F003042CB1C9B21C4403F811
:10029C00011B9C42FBD1F0BC704734461346002C2A
:1002AC00F3D1F8E714460346C2E71A462646E0E7C0
:1002BC00F0B4174C2568D5F848410CB365681F2D70
:1002CC0023DC38B900206B1C0235636044F8251020
:1002DC00F0BC7047012604EB850CCCF88820D4F8D0
:1002EC00887106FA05F217430228C4F88871CCF815
:1002FC000831E7D1D4F88C311A43C4F88C21E1E7EA
:10030C0005F5A674C5F84841D8E74FF0FF30DFE794
:10031C003419000810B504460E4B18784FF47A7354
:10032C00B3FBF0F30C4A1068B0FBF3F000F036F9B5
:10033C0068B90F2C01D901200AE0002221464FF0A8
:10034C00FF3000F0E9F8054B1C60002000E00120B4
:10035C0010BD00BF300400203804002034040020FD
:10036C0008B5074A136843F010031360032000F02C
:10037C00C1F80F20FFF7CEFF01F06EF9002008BD89
:10038C0000200240034A1168034B1B780B44136096
:10039C00704700BF5804002030040020014B18683F
:1003AC00704700BF58040020002800F0A18038B529
:1003BC00044690F82030D3B12268136843F001034F
:1003CC001360FFF7EBFF054623685A6812F0010F24
:1003DC0010D1FFF7E3FF401B0A28F5D9636A43F4F9
:1003EC0000336362052384F82030012038BD01F00E
:1003FC0055F9E1E71A6822F002021A60FFF7CEFF06
:10040C00054623685A6812F0020F0DD0FFF7C6FF9D
:10041C00401B0A28F5D9636A43F400336362052351
:10042C0084F820300120E1E7227E012A3DD01A68B1
:10043C0022F080021A60637E012B3BD02268136885
:10044C0023F040031360A37E012B39D0226813687C
:10045C0023F020031360E37E012B37D0226813684E
:10046C0043F010031360237F012B35D022681368EF
:10047C0023F008031360637F012B33D022681368C9
:10048C0023F004031360A368E26813432269134347
:10049C00626913436268013A21681343CB610020FF
:1004AC006062012384F82030A0E71A6842F08002D1
:1004BC001A60C0E72268136843F040031360C2E778
:1004CC002268136843F020031360C4E722681368A2
:1004DC0023F010031360C6E72268136843F0080387
:1004EC001360C8E72268136843F004031360CAE77B
:1004FC0001207047074AD36823F4E0631B041B0CEC
:10050C00000200F4E060034343F0BF6343F40033A4
:10051C00D360704700ED00E030B4174BDB68C3F3D9
:10052C000223C3F10704042C28BF04241D1D062D2F
:10053C0018D9033B4FF0FF3505FA04F421EA040106
:10054C00994005FA03F322EA0303194300280BDB55
:10055C000901C9B200F1604000F5614080F8001358
:10056C0030BC70470023E5E700F00F000901C9B269
:10057C00024B1954F4E700BF00ED00E014ED00E06D
:10058C00002807DB00F01F02400901239340024AB8
:10059C0042F82030704700BF00E100E00138B0F1B4
:1005AC00807F0AD2064B5860064AF02182F823104D
:1005BC000020986007221A6070470120704700BF26
:1005CC0010E000E000ED00E060B310B402460168FA
:1005DC00154B0B441548A0FB03031B099B0013642C
:1005EC00134BD363022382F82130086820F47F5028
:1005FC0020F03000536894682343D4682343146973
:10060C0023435469234394692343D4692343034309
:10061C000B6000209063012382F8213082F82000C7
:10062C0010BC704701207047F8FFFDBFCDCCCCCC7F
:10063C000000024038B5C36B1A6804682568016C69
:10064C0004238B40134235D015F0040F32D02368AD
:10065C0013F0200F03D1236823F0040323600368F5
:10066C00434A934214D01432934218D0143293421A
:10067C0017D01432934217D01432934217D014323D
:10068C00934202D04FF0806203E04FF4800200E00E
:10069C000422384B5A60C36A03B1984738BD4022D4
:1006AC00F7E74FF48062F4E74FF48042F1E74FF440
:1006BC008022EEE702238B4013423CD015F0020F50
:1006CC0039D0236813F0200F06D1236823F00A03D6
:1006DC002360012380F821300368254A934214D00B
:1006EC00143293421CD0143293421BD014329342D6
:1006FC001BD0143293421BD01432934202D04FF0D1
:10070C00007203E04FF4001200E00222194B5A6011
:10071C00002380F82030836A002BBFD09847BDE7B8
:10072C002022F3E74FF40072F0E74FF40052EDE7AC
:10073C004FF40032EAE7082303FA01F11142ADD07D
:10074C0015F0080FAAD0236823F00E032360026C67
:10075C00C16B012303FA02F24A60836380F82130F3
:10076C00002380F82030036B002B97D0984795E737
:10077C000800024000000240F0B482B000252C4674
:10078C0086E07D4FBB4210D007D97C4FBB420CD0CA
:10079C0007F58037BB4208D015E0A7F58017BB42A0
:1007AC0003D007F57027BB4209D18B68002B00F0F2
:1007BC00B980012B00F0B1804261082503E0A7F558
:1007CC008017BB42F1D0FF2E00F2AE808446FF2E84
:1007DC0000F2AD80A200DCF800300F27974023EA2E
:1007EC00070305FA02F21343CCF800304B6813F000
:1007FC00805F4CD0624B9A6942F001029A619B690E
:10080C0003F001030193019BA208971C5D4B53F865
:10081C00273004F00307BF004FF00F0C0CFA07FC55
:10082C0023EA0C0C584B984200F0878003F5806348
:10083C00984200F0848003F5806398427BD00323B8
:10084C00BB4043EA0C0302324E4F47F822304B6850
:10085C0013F4803F75D04D4A1368334313604B68D3
:10086C0013F4003F73D0494A5368334353604B68C9
:10087C0013F4801F71D0454A9368334393604B68DF
:10088C0013F4001F6FD0414AD3681E43D660013465
:10089C000B6833FA04F26CD00122A24003EA020680
:1008AC0032EA0303F3D14B68122B3FF66AAF122BDB
:1008BC0089D801A757F823F0B707000811090008D9
:1008CC001B0900082D090008D3070008D3070008EE
:1008DC00D3070008D3070008D3070008D307000884
:1008EC00D3070008D3070008D3070008D307000874
:1008FC00D3070008D3070008D30700081509000820
:10090C0021090008CD685EE7CD6804355BE7CD684A
:10091C00083558E7CD680C3555E70261082552E7D4
:10092C00002550E704254EE700F1040C4FE7A4F135
:10093C00080292004FE7022382E7002380E701239D
:10094C007EE7124A136823EA0603136087E70F4A0F
:10095C00536823EA0603536089E70C4A936823EA39
:10096C00060393608BE7094AD36823EA0606D66030
:10097C008DE702B0F0BC704700002210000031106F
:10098C00001002400000014000080140000401403A
:10099C0082B0084B1B68084AA2FB03235B0A00FBCE
:1009AC0003F3019300BF019B5A1E0192002BF9D156
:1009BC0002B0704738040020D34D6210002800F0BC
:1009CC00F18170B582B00446036813F0010F2CD08E
:1009DC00AA4B5B6803F00C03042B1DD0A74B5B6880
:1009EC0003F00C03082B12D06368B3F5803F41D0A1
:1009FC00002B55D103F1804303F504331A6822F41C
:100A0C0080321A601A6822F480221A6037E09B4BFD
:100A1C005B6813F4803FE7D0984B1B6813F4003FDE
:100A2C0003D06368002B00F0BF81236813F0020F22
:100A3C0075D0924B5B6813F00C0F5FD08F4B5B68DB
:100A4C0003F00C03082B54D02369002B00F0898091
:100A5C008B4B01221A60FFF7A1FC0546874B1B68E4
:100A6C0013F0020F74D1FFF799FC401B0228F5D943
:100A7C0003209EE1814A136843F48033136063685A
:100A8C0043B3FFF78BFC05467C4B1B6813F4003F0C
:100A9C00CBD1FFF783FC401B6428F5D9032088E1F8
:100AAC00B3F5A02F09D0754B1A6822F480321A6066
:100ABC001A6822F480221A60E1E703F18043A3F55F
:100ACC003C331A6842F480221A601A6842F480326D
:100ADC001A60D4E7FFF762FC0546684B1B6813F4F9
:100AEC00003FA2D0FFF75AFC401B6428F5D9032025
:100AFC005FE1624B5B6813F4803FA5D15F4B1B68D1
:100B0C0013F0020F03D02369012B40F04F815B4A95
:100B1C00136823F0F803616943EAC1031360236887
:100B2C0013F0080F32D0A369002B45D0554B01228E
:100B3C001A60FFF733FC0546504B5B6A13F0020F4B
:100B4C0021D1FFF72BFC401B0228F5D9032030E103
:100B5C004A4A136823F0F803616943EAC10313603E
:100B6C00DDE7474B00221A60FFF718FC0546434BA4
:100B7C001B6813F0020FD2D0FFF710FC401B0228A9
:100B8C00F5D9032015E10120FFF702FF236813F0CC
:100B9C00040F00F09780394BDB6913F0805F1DD197
:100BAC00364BDA6942F08052DA61DB6903F080532C
:100BBC000193019B012512E0324B00221A60FFF7D2
:100BCC00EDFB05462D4B5B6A13F0020FDED0FFF7F1
:100BDC00E5FB401B0228F5D90320EAE000252A4B4F
:100BEC001B6813F4807F11D0E368012B22D0002BFB
:100BFC0038D103F1804303F504331A6A22F0010261
:100C0C001A621A6A22F004021A6218E01E4A136869
:100C1C0043F480731360FFF7C1FB06461A4B1B6845
:100C2C0013F4807FE0D1FFF7B9FB801B6428F5D962
:100C3C000320BEE0114A136A43F001031362E36818
:100C4C0073B3FFF7ABFB06460C4B1B6A13F0020F9A
:100C5C0037D1FFF7A3FB801B41F288339842F3D9BD
:100C6C000320A6E0052B11D0044B1A6A22F00102D6
:100C7C001A621A6A22F004021A62E0E700100240BB
:100C8C000000424280044242007000404D4B1A6A00
:100C9C0042F004021A621A6A42F001021A62CEE7AA
:100CAC00FFF77CFB0646474B1B6A13F0020F08D07C
:100CBC00FFF774FB801B41F288339842F3D9032071
:100CCC0077E0E5B9E369002B72D03E4A526802F036
:100CDC000C02082A56D0022B17D03B4B00221A606C
:100CEC00FFF75CFB0446374B1B6813F0007F47D0C3
:100CFC00FFF754FB001B0228F5D9032059E0314AB9
:100D0C00D36923F08053D361DCE72F4B00221A60A8
:100D1C00FFF744FB05462B4B1B6813F0007F06D0F6
:100D2C00FFF73CFB401B0228F5D9032041E0236A66
:100D3C00B3F5803F1AD023494B6823F47413226A0D
:100D4C00606A024313434B601F4B01221A60FFF78A
:100D5C0025FB04461B4B1B6813F0007F0ED1FFF7DD
:100D6C001DFB001B0228F5D9032022E0154A53680D
:100D7C0023F40033A1680B435360DCE7002018E038
:100D8C00002016E0012B16D00E4B5B6803F480316B
:100D9C00226A914211D103F47013626A93420ED10C
:100DAC00002006E001207047012002E0012000E055
:100DBC00002002B070BD0120FBE70120F9E7012003
:100DCC00F7E700BF001002406000424286B0164BAD
:100DDC000FCB0DF1180C0CE90F0040F20123ADF80C
:100DEC000430124B5B6803F00C02082A02D0104846
:100DFC0006B07047C3F38342624412F8102C13F40C
:100E0C00803F0CD0094B5B68C3F34043634413F839
:100E1C00143C074800FB02F0B0FBF3F0E8E7054890
:100E2C0000FB02F0E4E700BF381900080010024094
:100E3C0000127A0000093D00002800F0A08070B577
:100E4C000D460446524B1B6803F007038B420BD232
:100E5C004F4A136823F007030B431360136803F026
:100E6C0007038B4240F08D80236813F0020F17D0DC
:100E7C0013F0040F04D0474A536843F4E063536003
:100E8C00236813F0080F04D0424A536843F46053AC
:100E9C005360404A536823F0F003A1680B4353603E
:100EAC00236813F0010F31D06368012B20D0022B83
:100EBC0025D0384A126812F0020F64D035494A68BE
:100ECC0022F0030213434B60FFF768FA0646314BDE
:100EDC005B6803F00C036268B3EB820F16D0FFF76C
:100EEC005DFA801B41F288339842F0D9032045E02B
:100EFC00284A126812F4003FE0D101203EE0254A56
:100F0C00126812F0007FD9D1012037E0204B1B680A
:100F1C0003F00703AB420AD91D4A136823F00703F9
:100F2C002B431360136803F00703AB422DD12368E6
:100F3C0013F0040F06D0174A536823F4E063E168FA
:100F4C000B435360236813F0080F07D0114A536802
:100F5C0023F46053216943EAC1035360FFF736FF62
:100F6C000C4B5B68C3F303130B4AD35CD8400B4B9D
:100F7C0018600B4B1868FFF7CDF9002070BD0120ED
:100F8C0070470120FAE70120F8E70120F6E700BFDF
:100F9C0000200240001002404C19000838040020C8
:100FAC0034040020002856D010B50446436A33B9E7
:100FBC004368B3F5827F05D00023C36102E00023B0
:100FCC00036143610023A36294F85130002B3CD0A1
:100FDC00022384F851302268136823F04003136015
:100FEC00636803F48273A26802F404421343E26858
:100FFC0002F400621343226902F002021343626995
:10100C0002F001021343A26902F400721343E26975
:10101C0002F038021343226A02F080021343A26AE0
:10102C0002F40052216813430B60638B226803F0B7
:10103C00040353602268D36923F40063D361002056
:10104C006065012384F8513010BD84F8503020467F
:10105C0000F060FBBCE701207047000070B4036A2D
:10106C0023F001030362036A4668826922F073026B
:10107C000C6844EA020523F002028B6813430D4C02
:10108C00A04209D00B4CA0420DD0466085614A6845
:10109C004263036270BC704723F00803CA681343B1
:1010AC0023F00403EEE726F440764A6932438E6956
:1010BC001643EAE7002C014030B4036A23F4807332
:1010CC000362036A4568C26922F073020C6822430A
:1010DC0023F400738C6843EA04230F4CA04209D01C
:1010EC000D4CA0420ED04560C2614A68C2630362D7
:1010FC0030BC704723F40063CC6843EA042323F428
:10110C008063EDE725F440554C6945EA04158C697C
:10111C0045EA0415E7E700BF002C014030B4036A30
:10112C0023F480530362036A4468C26922F4E642E2
:10113C000D6842EA052223F400538D6843EA053317
:10114C00074DA84206D04460C2614A68026403623B
:10115C0030BC704724F480444D6944EA8514F2E7AE
:10116C00002C01400368174A904206D0B0F1804F22
:10117C0003D0A2F59432904203D123F070034A6855
:10118C001343104A904206D0B0F1804F03D0A2F521
:10119C009432904203D123F44073CA68134323F072
:1011AC0080034A69134303608B68C3620B688362D4
:1011BC00044B984202D00123436170470B690363CF
:1011CC00F9E700BF002C014040B310B5044690F87D
:1011DC003D30F3B1022384F83D30214651F8040B25
:1011EC00FFF7C0FF012384F8463084F83E3084F8C2
:1011FC003F3084F8403084F8413084F8423084F831
:10120C00433084F8443084F8453084F83D30002075
:10121C0010BD80F83C3000F0EFFADBE7012070479E
:10122C0030B4036A23F010030362036A44688269D2
:10123C0022F4E6420D6842EA052223F020038D6871
:10124C0043EA05130E4DA84209D00D4DA8420ED00D
:10125C00446082614A688263036230BC704723F049
:10126C008003CD6843EA051323F04003EDE724F433
:10127C0040644D6944EA85048D6944EA8504E7E7D6
:10128C00002C014038B590F83C30012B60D004465E
:10129C000D46012380F83C300C2A1AD8DFE802F006
:1012AC00071919191D191919311919194400006850
:1012BC00FFF7D4FE2268936943F008039361226818
:1012CC00936923F0040393612268936929690B43A2
:1012DC009361002084F83C0038BD0068FFF7A0FF44
:1012EC002268936943F4006393612268936923F441
:1012FC008063936122689369296943EA01239361AE
:10130C00E7E70068FFF7D8FE2268D36943F00803CB
:10131C00D3612268D36923F00403D3612268D369B3
:10132C0029690B43D361D4E70068FFF7F7FE226805
:10133C00D36943F40063D3612268D36923F48063D7
:10134C00D3612268D369296943EA0123D361C0E7D9
:10135C000220C1E790F83C30012B27D030B4012398
:10136C0080F83C30022380F83D3003685C689D684F
:10137C0024F070040A6822435A6003680C4A9342B2
:10138C0006D0B3F1804F03D0A2F59432934204D12E
:10139C0025F080054A6815439D60012380F83D3097
:1013AC00002380F83C30184630BC70470220704750
:1013BC00002C014090F83C30012B22D0012380F806
:1013CC003C30CB6823F440738A68134323F4806366
:1013DC004A68134323F400630A68134323F48053CD
:1013EC000A69134323F400534A69134323F48043DB
:1013FC00CA69134302685364002380F83C301846D2
:10140C00704702207047000082B00A4B9A6942F084
:10141C0020029A619A6902F020020092009A9A695D
:10142C0042F004029A619B6903F004030193019B4F
:10143C0002B070470010024072B6FEE700B583B0F0
:10144C00184B5A6942F001025A615B6903F00103BF
:10145C000193019B1448154B03604FF48043436088
:10146C00402383608023C360002303614361836155
:10147C00C361FFF7A9F890B9002211460C20FFF7C1
:10148C004BF80C20FFF77CF8002211460D20FFF7DB
:10149C0043F80D20FFF774F803B05DF804FBFFF779
:1014AC00CBFF00BF00100240840400200800024063
:1014BC0008B50D480D4B0360032343600023836084
:1014CC00C3604FF4102202614FF4001242610376A4
:1014DC0043768376C37603774377FEF765FF00B9CF
:1014EC0008BDFFF7A9FF00BF5C04002000640040AA
:1014FC0008B50E480E4B03604FF482734360002313
:10150C008360C3600361012242614FF40072826107
:10151C003822C2610362436283620A23C362FFF70B
:10152C0041FD00B908BDFFF787FF00BF5005002043
:10153C000030014010B592B000241094119409941D
:10154C000A940B940C940D940E940F942022214623
:10155C0001A8FEF75DFE2048204B036044608460C8
:10156C0041F28733C360046144618461FFF72CFE50
:10157C00002829D100231093119310A91648FFF7C6
:10158C00E9FE18BB6023099300220A920B920C927D
:10159C000D920E920F9209A90F48FFF773FEB8B97E
:1015AC000023019302930393049305934FF4005289
:1015BC000692089301A90848FFF7FCFE50B90648AB
:1015CC0000F030F912B010BDFFF736FFFFF734FF13
:1015DC00FFF732FFFFF730FFA8050020002C014079
:1015EC0000B591B000230793089309930C930193D2
:1015FC0002930393049305930222069201210A910C
:10160C0010210B910D920E930F9306A8FFF7D6F9AC
:10161C0070B90F23019302230293002103910491CB
:10162C00059101A8FFF708FC20B911B05DF804FB87
:10163C00FFF702FFFFF700FF08B5FEF791FEFFF77B
:10164C00CFFFFFF7E1FEFFF7F9FEFFF731FFFFF7E2
:10165C004FFFFFF76FFFFEE782B00E4B9A6942F027
:10166C0001029A619A6902F001020092009ADA6909
:10167C0042F08052DA61DB6903F080530193019BE5
:10168C00054A536823F0E06343F00073536002B0E3
:10169C00704700BF001002400000014010B586B03A
:1016AC00002302930393049305930268174B9A4209
:1016BC0001D006B010BD03F5D633DA6942F00072E2
:1016CC00DA61DA6902F000720092009A9A6942F0CB
:1016DC0004029A619B6903F004030193019B4FF48C
:1016EC0000630293002303930493094C02A9204640
:1016FC00FFF742F84FF48053029302230393032322
:10170C00059302A92046FFF737F8D2E700640040A2
:10171C000008014070B586B0002302930393049334
:10172C00059302682E4B9A4201D006B070BD044658
:10173C0003F560439A6942F480529A619A6902F403
:10174C0080520092009A9A6942F004029A619B6955
:10175C0003F004030193019BA02302930223039340
:10176C00032305931F4E02A93046FFF705F84023CB
:10177C00029300250395049502A93046FEF7FCFF61
:10178C0019481A4B0360456085608023C36005616E
:10179C00456185614FF44053C361FEF715FFC0B935
:1017AC00114BE3645C621248124B036010234360DC
:1017BC00002383608022C2600361436183614FF424
:1017CC000053C361FEF700FF30B9094BA3645C62A0
:1017DC00ABE7FFF731FEE3E7FFF72EFEF5E700BFBF
:1017EC000030014000080140C80400201C000240E9
:1017FC000C050020300002400268094B9A4200D0D0
:10180C00704782B003F564439A6942F400629A61AE
:10181C009B6903F400630193019B02B0704700BF06
:10182C00002C014000B587B000230293039304936E
:10183C00059302680D4B9A4202D007B05DF804FB89
:10184C0003F564439A6942F004029A619B6903F0C0
:10185C0004030193019B4FF48073029302230393BF
:10186C00059302A90248FEF787FFE6E7002C01402A
:10187C0000080140FEE7FEE7FEE7FEE7FEE77047E3
:10188C007047704708B5FEF77DFD08BD08B50248E6
:10189C00FEF7D0FE08BD00BFC804002008B5024802
:1018AC00FEF7C8FE08BD00BF0C0500207047000005
:1018BC000C480D490D4A002302E0D458C45004339F
:1018CC00C4188C42F9D30A4A0A4C002301E0136075
:1018DC000432A242FBD3FFF7E9FFFEF775FCFFF7DA
:1018EC00ABFE7047000000203C0400206819000883
:1018FC003C040020F0050020FEE70000024B13B171
:10190C000248FEF741BC704700000000A10100082E
:10191C00F8B500BFF8BC08BC9E467047F8B500BFD0
:08192C00F8BC08BC9E467047A0
:101934000800002002030405060708090A0B0C0D21
:101944000E0F101000000000000000000000000056
:08195400010203040607080963
:08195C000919000875010008DB
:041964004D01000829
:10196800080000200000000000000000F402002031
:101978005C030020C40300200000000000000000F9
:10198800000000000000000000000000000000004F
:10199800000000000000000000000000000000003F
:1019A800000000000000000000000000000000002F
:1019B800000000000000000000000000000000001F
:1019C800000000000000000000000000000000000F
:1019D80000000000000000000000000000000000FF
:1019E80000000000000000000000000000000000EF
:1019F80000000000000000000000000000000000DF
:101A080000000000000000000000000000000000CE
:101A180001000000000000000E33CDAB34126DE66B
:101A2800ECDE05000B0000000000000000000000D4
:101A3800000000000000000000000000000000009E
:101A4800000000000000000000000000000000008E
:101A5800000000000000000000000000000000007E
:101A6800000000000000000000000000000000006E
:0C1D980001000000100000000024F40016
:04000005080018BD1A
:00000001FF
